S00C00004C4142352E7372656314
S11300000C9434000C943E000C943E000C943E007E
S11300100C943E000C943E000C943E000C943E0064
S11300200C943E000C943E000C943E000C943E0054
S11300300C943E000C943E000C943E000C943E0044
S11300400C943E000C943E000C943E000C943E0034
S11300500C943E000C943E000C943E000C943E0024
S11300600C943E000C943E0011241FBECFEFD8E048
S1130070DEBFCDBF0E945C000C9494010C94000080
S113008080E480937C0086E880937A000895ECE70E
S1130090F0E09081907F8F70892B8083EAE7F0E015
S11300A080818064808380917A0086FDFCCF80917A
S11300B078009091790008950E9440000E94C40045
S11300C00E94DE0080E00E9447003C0181E00E9423
S11300D047004C0182E00E944700EC01B30180E03C
S11300E090E01F921F920F2EFFE06F2EF02D6F9263
S11300F00F2EF0EA7F2EF02D7F920F2EF8EEAF2E0A
S1130100F3E0BF2EC12CD12CF02DEE24EA9413E0A1
S1130110F12E00E010E020E030E0A9010E94E800A8
S1130120CB010E94D400B40180E090E01F921F92A2
S11301306F927F9220E030E0A9010E94E800CB0199
S11301400E94D900BE0180E090E01F921F921F928E
S11301502FEF2F93A12CB12C650120E030E0A901F1
S11301600E94E800862F0E94E60083ED90E3019749
S1130170F1F700C000008DB79EB70C960FB6F89447
S11301809EBF0FBE8DBF9ECF84B1866084B982EAC4
S1130190809380008AE18093810080E49CE99093BD
S11301A08700809386000895909389008093880047
S11301B0089590938B0080938A0008958AB1806497
S11301C08AB983E884BD82E085BD089587BD08951A
S11301D04F925F926F927F92AF92BF92CF92DF92D3
S11301E0EF92FF920F931F93CF93DF93CDB7DEB7B8
S11301F029013A019B01AC01241935094609570923
S113020089899A89AB89BC89BC01CD016A197B09AA
S11302108C099D090E942901A80197012419350917
S1130220460957090E943901C601B501620F731FBF
S1130230841F951FDF91CF911F910F91FF90EF9035
S1130240DF90CF90BF90AF907F906F905F904F9072
S11302500895DB018F939F930E945801BF91AF9142
S1130260A29F800D911DA39F900DB29F900D11240C
S11302700895052E97FB1EF400940E94500157FD2B
S113028007D00E94630107FC03D04EF40C94500184
S113029050954095309521953F4F4F4F5F4F0895AE
S11302A090958095709561957F4F8F4F9F4F0895DE
S11302B00E948501A59F900DB49F900DA49F800D71
S11302C0911D11240895A1E21A2EAA1BBB1BFD0146
S11302D00DC0AA1FBB1FEE1FFF1FA217B307E40721
S11302E0F50720F0A21BB30BE40BF50B661F771F79
S11302F0881F991F1A9469F7609570958095909559
S11303009B01AC01BD01CF010895A29FB001B39F31
S1130310C001A39F700D811D1124911DB29F700D0A
S10F0320811D1124911D0895F894FFCF55
S9030000FC
